{
  "contractName": "Voting",
  "abi": [
    {
      "anonymous": false,
      "inputs": [
        {
          "indexed": true,
          "internalType": "address",
          "name": "previousOwner",
          "type": "address"
        },
        {
          "indexed": true,
          "internalType": "address",
          "name": "newOwner",
          "type": "address"
        }
      ],
      "name": "OwnershipTransferred",
      "type": "event"
    },
    {
      "anonymous": false,
      "inputs": [
        {
          "indexed": false,
          "internalType": "uint256",
          "name": "proposalId",
          "type": "uint256"
        }
      ],
      "name": "ProposalRegistered",
      "type": "event"
    },
    {
      "anonymous": false,
      "inputs": [
        {
          "indexed": false,
          "internalType": "address",
          "name": "voter",
          "type": "address"
        },
        {
          "indexed": false,
          "internalType": "uint256",
          "name": "proposalId",
          "type": "uint256"
        }
      ],
      "name": "Voted",
      "type": "event"
    },
    {
      "anonymous": false,
      "inputs": [
        {
          "indexed": false,
          "internalType": "address",
          "name": "voterAddress",
          "type": "address"
        }
      ],
      "name": "VoterRegistered",
      "type": "event"
    },
    {
      "anonymous": false,
      "inputs": [
        {
          "indexed": false,
          "internalType": "enum Voting.WorkflowStatus",
          "name": "previousStatus",
          "type": "uint8"
        },
        {
          "indexed": false,
          "internalType": "enum Voting.WorkflowStatus",
          "name": "newStatus",
          "type": "uint8"
        }
      ],
      "name": "WorkflowStatusChange",
      "type": "event"
    },
    {
      "inputs": [],
      "name": "nbrVoters",
      "outputs": [
        {
          "internalType": "uint256",
          "name": "",
          "type": "uint256"
        }
      ],
      "stateMutability": "view",
      "type": "function",
      "constant": true
    },
    {
      "inputs": [],
      "name": "nbrVotersMax",
      "outputs": [
        {
          "internalType": "uint256",
          "name": "",
          "type": "uint256"
        }
      ],
      "stateMutability": "view",
      "type": "function",
      "constant": true
    },
    {
      "inputs": [],
      "name": "owner",
      "outputs": [
        {
          "internalType": "address",
          "name": "",
          "type": "address"
        }
      ],
      "stateMutability": "view",
      "type": "function",
      "constant": true
    },
    {
      "inputs": [],
      "name": "renounceOwnership",
      "outputs": [],
      "stateMutability": "nonpayable",
      "type": "function"
    },
    {
      "inputs": [
        {
          "internalType": "address",
          "name": "newOwner",
          "type": "address"
        }
      ],
      "name": "transferOwnership",
      "outputs": [],
      "stateMutability": "nonpayable",
      "type": "function"
    },
    {
      "inputs": [],
      "name": "winningProposalID",
      "outputs": [
        {
          "internalType": "uint256",
          "name": "",
          "type": "uint256"
        }
      ],
      "stateMutability": "view",
      "type": "function",
      "constant": true
    },
    {
      "inputs": [],
      "name": "workflowStatus",
      "outputs": [
        {
          "internalType": "enum Voting.WorkflowStatus",
          "name": "",
          "type": "uint8"
        }
      ],
      "stateMutability": "view",
      "type": "function",
      "constant": true
    },
    {
      "inputs": [
        {
          "internalType": "address",
          "name": "_addr",
          "type": "address"
        }
      ],
      "name": "getVoter",
      "outputs": [
        {
          "components": [
            {
              "internalType": "bool",
              "name": "isRegistered",
              "type": "bool"
            },
            {
              "internalType": "bool",
              "name": "hasVoted",
              "type": "bool"
            },
            {
              "internalType": "bool",
              "name": "hasSubmitted",
              "type": "bool"
            },
            {
              "internalType": "uint256",
              "name": "votedProposalId",
              "type": "uint256"
            }
          ],
          "internalType": "struct Voting.Voter",
          "name": "",
          "type": "tuple"
        }
      ],
      "stateMutability": "view",
      "type": "function",
      "constant": true
    },
    {
      "inputs": [
        {
          "internalType": "uint256",
          "name": "_id",
          "type": "uint256"
        }
      ],
      "name": "getOneProposal",
      "outputs": [
        {
          "components": [
            {
              "internalType": "string",
              "name": "description",
              "type": "string"
            },
            {
              "internalType": "uint256",
              "name": "voteCount",
              "type": "uint256"
            }
          ],
          "internalType": "struct Voting.Proposal",
          "name": "",
          "type": "tuple"
        }
      ],
      "stateMutability": "view",
      "type": "function",
      "constant": true
    },
    {
      "inputs": [
        {
          "internalType": "address",
          "name": "_addr",
          "type": "address"
        }
      ],
      "name": "addVoter",
      "outputs": [],
      "stateMutability": "nonpayable",
      "type": "function"
    },
    {
      "inputs": [
        {
          "internalType": "string",
          "name": "_desc",
          "type": "string"
        }
      ],
      "name": "addProposal",
      "outputs": [],
      "stateMutability": "nonpayable",
      "type": "function"
    },
    {
      "inputs": [
        {
          "internalType": "uint256",
          "name": "_id",
          "type": "uint256"
        }
      ],
      "name": "setVote",
      "outputs": [],
      "stateMutability": "nonpayable",
      "type": "function"
    },
    {
      "inputs": [],
      "name": "startProposalsRegistering",
      "outputs": [],
      "stateMutability": "nonpayable",
      "type": "function"
    },
    {
      "inputs": [],
      "name": "endProposalsRegistering",
      "outputs": [],
      "stateMutability": "nonpayable",
      "type": "function"
    },
    {
      "inputs": [],
      "name": "startVotingSession",
      "outputs": [],
      "stateMutability": "nonpayable",
      "type": "function"
    },
    {
      "inputs": [],
      "name": "endVotingSession",
      "outputs": [],
      "stateMutability": "nonpayable",
      "type": "function"
    },
    {
      "inputs": [],
      "name": "tallyVotes",
      "outputs": [],
      "stateMutability": "nonpayable",
      "type": "function"
    }
  ],
  "bytecode": "0x608060405260056006553480156200001657600080fd5b50620000376200002b6200003d60201b60201c565b6200004560201b60201c565b62000109565b600033905090565b60008060009054906101000a900473ffffffffffffffffffffffffffffffffffffffff169050816000806101000a81548173ffffffffffffffffffffffffffffffffffffffff021916908373ffffffffffffffffffffffffffffffffffffffff1602179055508173ffffffffffffffffffffffffffffffffffffffff168173ffffffffffffffffffffffffffffffffffffffff167f8be0079c531659141344cd1fd0a4f28419497f9722a3daafe3b4186f6b6457e060405160405180910390a35050565b61284f80620001196000396000f3fe608060405234801561001057600080fd5b506004361061010b5760003560e01c8063bdc01431116100a2578063eb8c1de011610071578063eb8c1de014610234578063ee74c67814610252578063f2fde38b1461025c578063f4ab9adf14610278578063f512f5e7146102945761010b565b8063bdc01431146101d2578063c7038a4e146101f0578063c88af42f146101fa578063d4f50f98146102045761010b565b80638da5cb5b116100de5780638da5cb5b1461015c578063a1edffa21461017a578063a2788cce14610198578063a7bfab16146101c85761010b565b8063230796ae146101105780632fdae3c51461012c578063378a217814610148578063715018a614610152575b600080fd5b61012a60048036038101906101259190611917565b6102b2565b005b61014660048036038101906101419190611a8a565b6105ae565b005b6101506108dc565b005b61015a610abd565b005b610164610b45565b6040516101719190611b14565b60405180910390f35b610182610b6e565b60405161018f9190611ba6565b60405180910390f35b6101b260048036038101906101ad9190611917565b610b81565b6040516101bf9190611c95565b60405180910390f35b6101d0610ce8565b005b6101da610e42565b6040516101e79190611cc6565b60405180910390f35b6101f8610e48565b005b610202610fa2565b005b61021e60048036038101906102199190611d0d565b6110fb565b60405161022b9190611daa565b60405180910390f35b61023c61123e565b6040516102499190611cc6565b60405180910390f35b61025a611244565b005b61027660048036038101906102719190611d0d565b61139e565b005b610292600480360381019061028d9190611d0d565b611495565b005b61029c611710565b6040516102a99190611cc6565b60405180910390f35b600460003373ffffffffffffffffffffffffffffffffffffffff1673ffffffffffffffffffffffffffffffffffffffff16815260200190815260200160002060000160009054906101000a900460ff16610341576040517f08c379a000000000000000000000000000000000000000000000000000000000815260040161033890611e22565b60405180910390fd5b6003600581111561035557610354611b2f565b5b600260009054906101000a900460ff16600581111561037757610376611b2f565b5b146103b7576040517f08c379a00000000000000000000000000000000000000000000000000000000081526004016103ae90611eb4565b60405180910390fd5b60011515600460003373ffffffffffffffffffffffffffffffffffffffff1673ffffffffffffffffffffffffffffffffffffffff16815260200190815260200160002060000160019054906101000a900460ff1615150361044d576040517f08c379a000000000000000000000000000000000000000000000000000000000815260040161044490611f20565b60405180910390fd5b600380549050811115610495576040517f08c379a000000000000000000000000000000000000000000000000000000000815260040161048c90611f8c565b60405180910390fd5b80600460003373ffffffffffffffffffffffffffffffffffffffff1673ffffffffffffffffffffffffffffffffffffffff168152602001908152602001600020600101819055506001600460003373ffffffffffffffffffffffffffffffffffffffff1673ffffffffffffffffffffffffffffffffffffffff16815260200190815260200160002060000160016101000a81548160ff0219169083151502179055506003818154811061054b5761054a611fac565b5b9060005260206000209060020201600101600081548092919061056d9061200a565b91905055507f4d99b957a2bc29a30ebd96a7be8e68fe50a3c701db28a91436490b7d53870ca433826040516105a3929190612052565b60405180910390a150565b600460003373ffffffffffffffffffffffffffffffffffffffff1673ffffffffffffffffffffffffffffffffffffffff16815260200190815260200160002060000160009054906101000a900460ff1661063d576040517f08c379a000000000000000000000000000000000000000000000000000000000815260040161063490611e22565b60405180910390fd5b6001600581111561065157610650611b2f565b5b600260009054906101000a900460ff16600581111561067357610672611b2f565b5b146106b3576040517f08c379a00000000000000000000000000000000000000000000000000000000081526004016106aa906120c7565b60405180910390fd5b600460003373ffffffffffffffffffffffffffffffffffffffff1673ffffffffffffffffffffffffffffffffffffffff16815260200190815260200160002060000160029054906101000a900460ff1615610743576040517f08c379a000000000000000000000000000000000000000000000000000000000815260040161073a90612133565b60405180910390fd5b60405160200161075290612179565b604051602081830303815290604052805190602001208160405160200161077991906121d2565b60405160208183030381529060405280519060200120036107cf576040517f08c379a00000000000000000000000000000000000000000000000000000000081526004016107c690612266565b60405180910390fd5b6107d76117e2565b818160000181905250600381908060018154018082558091505060019003906000526020600020906002020160009091909190915060008201518160000190805190602001906108289291906117fc565b506020820151816001015550506001600460003373ffffffffffffffffffffffffffffffffffffffff1673ffffffffffffffffffffffffffffffffffffffff16815260200190815260200160002060000160026101000a81548160ff0219169083151502179055507f92e393e9b54e2f801d3ea4beb0c5e71a21cc34a5d34b77d0fb8a3aa1650dc18f60016003805490506108c39190612286565b6040516108d09190611cc6565b60405180910390a15050565b6108e4611716565b73ffffffffffffffffffffffffffffffffffffffff16610902610b45565b73ffffffffffffffffffffffffffffffffffffffff1614610958576040517f08c379a000000000000000000000000000000000000000000000000000000000815260040161094f90612306565b60405180910390fd5b6004600581111561096c5761096b611b2f565b5b600260009054906101000a900460ff16600581111561098e5761098d611b2f565b5b146109ce576040517f08c379a00000000000000000000000000000000000000000000000000000000081526004016109c590612398565b60405180910390fd5b600080600090505b600380549050811015610a4c57600382815481106109f7576109f6611fac565b5b90600052602060002090600202016001015460038281548110610a1d57610a1c611fac565b5b9060005260206000209060020201600101541115610a39578091505b8080610a449061200a565b9150506109d6565b50806001819055506005600260006101000a81548160ff02191690836005811115610a7a57610a79611b2f565b5b02179055507f0a97a4ee45751e2abf3e4fc8946939630b11b371ea8ae39ccdc3056e98f5cc3f60046005604051610ab29291906123b8565b60405180910390a150565b610ac5611716565b73ffffffffffffffffffffffffffffffffffffffff16610ae3610b45565b73ffffffffffffffffffffffffffffffffffffffff1614610b39576040517f08c379a0000000000000000000000000000000000000000000000000000000008152600401610b3090612306565b60405180910390fd5b610b43600061171e565b565b60008060009054906101000a900473ffffffffffffffffffffffffffffffffffffffff16905090565b600260009054906101000a900460ff1681565b610b896117e2565b600460003373ffffffffffffffffffffffffffffffffffffffff1673ffffffffffffffffffffffffffffffffffffffff16815260200190815260200160002060000160009054906101000a900460ff16610c18576040517f08c379a0000000000000000000000000000000000000000000000000000000008152600401610c0f90611e22565b60405180910390fd5b60038281548110610c2c57610c2b611fac565b5b9060005260206000209060020201604051806040016040529081600082018054610c5590612410565b80601f0160208091040260200160405190810160405280929190818152602001828054610c8190612410565b8015610cce5780601f10610ca357610100808354040283529160200191610cce565b820191906000526020600020905b815481529060010190602001808311610cb157829003601f168201915b505050505081526020016001820154815250509050919050565b610cf0611716565b73ffffffffffffffffffffffffffffffffffffffff16610d0e610b45565b73ffffffffffffffffffffffffffffffffffffffff1614610d64576040517f08c379a0000000000000000000000000000000000000000000000000000000008152600401610d5b90612306565b60405180910390fd5b60036005811115610d7857610d77611b2f565b5b600260009054906101000a900460ff166005811115610d9a57610d99611b2f565b5b14610dda576040517f08c379a0000000000000000000000000000000000000000000000000000000008152600401610dd190611eb4565b60405180910390fd5b6004600260006101000a81548160ff02191690836005811115610e0057610dff611b2f565b5b02179055507f0a97a4ee45751e2abf3e4fc8946939630b11b371ea8ae39ccdc3056e98f5cc3f60036004604051610e389291906123b8565b60405180910390a1565b60015481565b610e50611716565b73ffffffffffffffffffffffffffffffffffffffff16610e6e610b45565b73ffffffffffffffffffffffffffffffffffffffff1614610ec4576040517f08c379a0000000000000000000000000000000000000000000000000000000008152600401610ebb90612306565b60405180910390fd5b60006005811115610ed857610ed7611b2f565b5b600260009054906101000a900460ff166005811115610efa57610ef9611b2f565b5b14610f3a576040517f08c379a0000000000000000000000000000000000000000000000000000000008152600401610f31906124b3565b60405180910390fd5b6001600260006101000a81548160ff02191690836005811115610f6057610f5f611b2f565b5b02179055507f0a97a4ee45751e2abf3e4fc8946939630b11b371ea8ae39ccdc3056e98f5cc3f60006001604051610f989291906123b8565b60405180910390a1565b610faa611716565b73ffffffffffffffffffffffffffffffffffffffff16610fc8610b45565b73ffffffffffffffffffffffffffffffffffffffff161461101e576040517f08c379a000000000000000000000000000000000000000000000000000000000815260040161101590612306565b60405180910390fd5b6001600581111561103257611031611b2f565b5b600260009054906101000a900460ff16600581111561105457611053611b2f565b5b14611094576040517f08c379a000000000000000000000000000000000000000000000000000000000815260040161108b90612545565b60405180910390fd5b60028060006101000a81548160ff021916908360058111156110b9576110b8611b2f565b5b02179055507f0a97a4ee45751e2abf3e4fc8946939630b11b371ea8ae39ccdc3056e98f5cc3f600160026040516110f19291906123b8565b60405180910390a1565b611103611882565b600460003373ffffffffffffffffffffffffffffffffffffffff1673ffffffffffffffffffffffffffffffffffffffff16815260200190815260200160002060000160009054906101000a900460ff16611192576040517f08c379a000000000000000000000000000000000000000000000000000000000815260040161118990611e22565b60405180910390fd5b600460008373ffffffffffffffffffffffffffffffffffffffff1673ffffffffffffffffffffffffffffffffffffffff1681526020019081526020016000206040518060800160405290816000820160009054906101000a900460ff161515151581526020016000820160019054906101000a900460ff161515151581526020016000820160029054906101000a900460ff161515151581526020016001820154815250509050919050565b60065481565b61124c611716565b73ffffffffffffffffffffffffffffffffffffffff1661126a610b45565b73ffffffffffffffffffffffffffffffffffffffff16146112c0576040517f08c379a00000000000000000000000000000000000000000000000000000000081526004016112b790612306565b60405180910390fd5b600260058111156112d4576112d3611b2f565b5b600260009054906101000a900460ff1660058111156112f6576112f5611b2f565b5b14611336576040517f08c379a000000000000000000000000000000000000000000000000000000000815260040161132d906125d7565b60405180910390fd5b6003600260006101000a81548160ff0219169083600581111561135c5761135b611b2f565b5b02179055507f0a97a4ee45751e2abf3e4fc8946939630b11b371ea8ae39ccdc3056e98f5cc3f600260036040516113949291906123b8565b60405180910390a1565b6113a6611716565b73ffffffffffffffffffffffffffffffffffffffff166113c4610b45565b73ffffffffffffffffffffffffffffffffffffffff161461141a576040517f08c379a000000000000000000000000000000000000000000000000000000000815260040161141190612306565b60405180910390fd5b600073ffffffffffffffffffffffffffffffffffffffff168173ffffffffffffffffffffffffffffffffffffffff1603611489576040517f08c379a000000000000000000000000000000000000000000000000000000000815260040161148090612669565b60405180910390fd5b6114928161171e565b50565b61149d611716565b73ffffffffffffffffffffffffffffffffffffffff166114bb610b45565b73ffffffffffffffffffffffffffffffffffffffff1614611511576040517f08c379a000000000000000000000000000000000000000000000000000000000815260040161150890612306565b60405180910390fd5b6000600581111561152557611524611b2f565b5b600260009054906101000a900460ff16600581111561154757611546611b2f565b5b14611587576040517f08c379a000000000000000000000000000000000000000000000000000000000815260040161157e906126fb565b60405180910390fd5b600654600554106115cd576040517f08c379a00000000000000000000000000000000000000000000000000000000081526004016115c49061278d565b60405180910390fd5b60011515600460008373ffffffffffffffffffffffffffffffffffffffff1673ffffffffffffffffffffffffffffffffffffffff16815260200190815260200160002060000160009054906101000a900460ff16151503611663576040517f08c379a000000000000000000000000000000000000000000000000000000000815260040161165a906127f9565b60405180910390fd5b6001600460008373ffffffffffffffffffffffffffffffffffffffff1673ffffffffffffffffffffffffffffffffffffffff16815260200190815260200160002060000160006101000a81548160ff021916908315150217905550600560008154809291906116d19061200a565b91905055507fb6be2187d059cc2a55fe29e0e503b566e1e0f8c8780096e185429350acffd3dd816040516117059190611b14565b60405180910390a150565b60055481565b600033905090565b60008060009054906101000a900473ffffffffffffffffffffffffffffffffffffffff169050816000806101000a81548173ffffffffffffffffffffffffffffffffffffffff021916908373ffffffffffffffffffffffffffffffffffffffff1602179055508173ffffffffffffffffffffffffffffffffffffffff168173ffffffffffffffffffffffffffffffffffffffff167f8be0079c531659141344cd1fd0a4f28419497f9722a3daafe3b4186f6b6457e060405160405180910390a35050565b604051806040016040528060608152602001600081525090565b82805461180890612410565b90600052602060002090601f01602090048101928261182a5760008555611871565b82601f1061184357805160ff1916838001178555611871565b82800160010185558215611871579182015b82811115611870578251825591602001919060010190611855565b5b50905061187e91906118b0565b5090565b6040518060800160405280600015158152602001600015158152602001600015158152602001600081525090565b5b808211156118c95760008160009055506001016118b1565b5090565b6000604051905090565b600080fd5b600080fd5b6000819050919050565b6118f4816118e1565b81146118ff57600080fd5b50565b600081359050611911816118eb565b92915050565b60006020828403121561192d5761192c6118d7565b5b600061193b84828501611902565b91505092915050565b600080fd5b600080fd5b6000601f19601f8301169050919050565b7f4e487b7100000000000000000000000000000000000000000000000000000000600052604160045260246000fd5b6119978261194e565b810181811067ffffffffffffffff821117156119b6576119b561195f565b5b80604052505050565b60006119c96118cd565b90506119d5828261198e565b919050565b600067ffffffffffffffff8211156119f5576119f461195f565b5b6119fe8261194e565b9050602081019050919050565b82818337600083830152505050565b6000611a2d611a28846119da565b6119bf565b905082815260208101848484011115611a4957611a48611949565b5b611a54848285611a0b565b509392505050565b600082601f830112611a7157611a70611944565b5b8135611a81848260208601611a1a565b91505092915050565b600060208284031215611aa057611a9f6118d7565b5b600082013567ffffffffffffffff811115611abe57611abd6118dc565b5b611aca84828501611a5c565b91505092915050565b600073ffffffffffffffffffffffffffffffffffffffff82169050919050565b6000611afe82611ad3565b9050919050565b611b0e81611af3565b82525050565b6000602082019050611b296000830184611b05565b92915050565b7f4e487b7100000000000000000000000000000000000000000000000000000000600052602160045260246000fd5b60068110611b6f57611b6e611b2f565b5b50565b6000819050611b8082611b5e565b919050565b6000611b9082611b72565b9050919050565b611ba081611b85565b82525050565b6000602082019050611bbb6000830184611b97565b92915050565b600081519050919050565b600082825260208201905092915050565b60005b83811015611bfb578082015181840152602081019050611be0565b83811115611c0a576000848401525b50505050565b6000611c1b82611bc1565b611c258185611bcc565b9350611c35818560208601611bdd565b611c3e8161194e565b840191505092915050565b611c52816118e1565b82525050565b60006040830160008301518482036000860152611c758282611c10565b9150506020830151611c8a6020860182611c49565b508091505092915050565b60006020820190508181036000830152611caf8184611c58565b905092915050565b611cc0816118e1565b82525050565b6000602082019050611cdb6000830184611cb7565b92915050565b611cea81611af3565b8114611cf557600080fd5b50565b600081359050611d0781611ce1565b92915050565b600060208284031215611d2357611d226118d7565b5b6000611d3184828501611cf8565b91505092915050565b60008115159050919050565b611d4f81611d3a565b82525050565b608082016000820151611d6b6000850182611d46565b506020820151611d7e6020850182611d46565b506040820151611d916040850182611d46565b506060820151611da46060850182611c49565b50505050565b6000608082019050611dbf6000830184611d55565b92915050565b600082825260208201905092915050565b7f596f75277265206e6f74206120766f7465720000000000000000000000000000600082015250565b6000611e0c601283611dc5565b9150611e1782611dd6565b602082019050919050565b60006020820190508181036000830152611e3b81611dff565b9050919050565b7f566f74696e672073657373696f6e20686176656e74207374617274656420796560008201527f7400000000000000000000000000000000000000000000000000000000000000602082015250565b6000611e9e602183611dc5565b9150611ea982611e42565b604082019050919050565b60006020820190508181036000830152611ecd81611e91565b9050919050565b7f596f75206861766520616c726561647920766f74656400000000000000000000600082015250565b6000611f0a601683611dc5565b9150611f1582611ed4565b602082019050919050565b60006020820190508181036000830152611f3981611efd565b9050919050565b7f50726f706f73616c206e6f7420666f756e640000000000000000000000000000600082015250565b6000611f76601283611dc5565b9150611f8182611f40565b602082019050919050565b60006020820190508181036000830152611fa581611f69565b9050919050565b7f4e487b7100000000000000000000000000000000000000000000000000000000600052603260045260246000fd5b7f4e487b7100000000000000000000000000000000000000000000000000000000600052601160045260246000fd5b6000612015826118e1565b91507fffffffffffffffffffffffffffffffffffffffffffffffffffffffffffffffff820361204757612046611fdb565b5b600182019050919050565b60006040820190506120676000830185611b05565b6120746020830184611cb7565b9392505050565b7f50726f706f73616c7320617265206e6f7420616c6c6f77656420796574000000600082015250565b60006120b1601d83611dc5565b91506120bc8261207b565b602082019050919050565b600060208201905081810360008301526120e0816120a4565b9050919050565b7f50726f706f73616c20616c7265616479207375626d6974746564000000000000600082015250565b600061211d601a83611dc5565b9150612128826120e7565b602082019050919050565b6000602082019050818103600083015261214c81612110565b9050919050565b50565b6000612163600083611dc5565b915061216e82612153565b600082019050919050565b6000602082019050818103600083015261219281612156565b9050919050565b60006121a482611bc1565b6121ae8185611dc5565b93506121be818560208601611bdd565b6121c78161194e565b840191505092915050565b600060208201905081810360008301526121ec8184612199565b905092915050565b7f566f7573206e6520706f7576657a20706173206e65207269656e2070726f706f60008201527f7365720000000000000000000000000000000000000000000000000000000000602082015250565b6000612250602383611dc5565b915061225b826121f4565b604082019050919050565b6000602082019050818103600083015261227f81612243565b9050919050565b6000612291826118e1565b915061229c836118e1565b9250828210156122af576122ae611fdb565b5b828203905092915050565b7f4f776e61626c653a2063616c6c6572206973206e6f7420746865206f776e6572600082015250565b60006122f0602083611dc5565b91506122fb826122ba565b602082019050919050565b6000602082019050818103600083015261231f816122e3565b9050919050565b7f43757272656e7420737461747573206973206e6f7420766f74696e672073657360008201527f73696f6e20656e64656400000000000000000000000000000000000000000000602082015250565b6000612382602a83611dc5565b915061238d82612326565b604082019050919050565b600060208201905081810360008301526123b181612375565b9050919050565b60006040820190506123cd6000830185611b97565b6123da6020830184611b97565b9392505050565b7f4e487b7100000000000000000000000000000000000000000000000000000000600052602260045260246000fd5b6000600282049050600182168061242857607f821691505b60208210810361243b5761243a6123e1565b5b50919050565b7f5265676973746572696e672070726f706f73616c732063616e7420626520737460008201527f6172746564206e6f770000000000000000000000000000000000000000000000602082015250565b600061249d602983611dc5565b91506124a882612441565b604082019050919050565b600060208201905081810360008301526124cc81612490565b9050919050565b7f5265676973746572696e672070726f706f73616c7320686176656e742073746160008201527f7274656420796574000000000000000000000000000000000000000000000000602082015250565b600061252f602883611dc5565b915061253a826124d3565b604082019050919050565b6000602082019050818103600083015261255e81612522565b9050919050565b7f5265676973746572696e672070726f706f73616c73207068617365206973206e60008201527f6f742066696e6973686564000000000000000000000000000000000000000000602082015250565b60006125c1602b83611dc5565b91506125cc82612565565b604082019050919050565b600060208201905081810360008301526125f0816125b4565b9050919050565b7f4f776e61626c653a206e6577206f776e657220697320746865207a65726f206160008201527f6464726573730000000000000000000000000000000000000000000000000000602082015250565b6000612653602683611dc5565b915061265e826125f7565b604082019050919050565b6000602082019050818103600083015261268281612646565b9050919050565b7f566f7465727320726567697374726174696f6e206973206e6f74206f70656e2060008201527f7965740000000000000000000000000000000000000000000000000000000000602082015250565b60006126e5602383611dc5565b91506126f082612689565b604082019050919050565b60006020820190508181036000830152612714816126d8565b9050919050565b7f4d617820766f74657273206e756d62657220686173206265656e20726561636860008201527f6564000000000000000000000000000000000000000000000000000000000000602082015250565b6000612777602283611dc5565b91506127828261271b565b604082019050919050565b600060208201905081810360008301526127a68161276a565b9050919050565b7f416c726561647920726567697374657265640000000000000000000000000000600082015250565b60006127e3601283611dc5565b91506127ee826127ad565b602082019050919050565b60006020820190508181036000830152612812816127d6565b905091905056fea2646970667358221220eb7acd316b6e08f01e0b893e61dc1a5620341b86d41503e66c8176a8b0caa5cb64736f6c634300080d0033",
  "immutableReferences": {},
  "source": "// SPDX-License-Identifier: MIT\n\npragma solidity 0.8.13;\n\nimport \"../node_modules/@openzeppelin/contracts/access/Ownable.sol\";\n\n/// @title A voting system\n/// @author Cyril Castagnet & Pierre-Frdric Murillo\n/// @notice Each allowed voter can set a proposal, then vote for a proposal\n/// @dev Use the nbrVotersMax variable to set the number of allowed voters\ncontract Voting is Ownable {\n\n    uint public winningProposalID;\n    \n    struct Voter {\n        bool isRegistered;\n        bool hasVoted;\n        bool hasSubmitted;\n        uint votedProposalId;\n    }\n\n    struct Proposal {\n        string description;\n        uint voteCount;\n    }\n\n    enum  WorkflowStatus {\n        RegisteringVoters,\n        ProposalsRegistrationStarted,\n        ProposalsRegistrationEnded,\n        VotingSessionStarted,\n        VotingSessionEnded,\n        VotesTallied\n    }\n\n    WorkflowStatus public workflowStatus;\n    Proposal[] proposalsArray;\n    mapping (address => Voter) voters;\n\n    uint public nbrVoters;\n    uint public nbrVotersMax = 5;\n\n    event VoterRegistered(address voterAddress); \n    event WorkflowStatusChange(WorkflowStatus previousStatus, WorkflowStatus newStatus);\n    event ProposalRegistered(uint proposalId);\n    event Voted (address voter, uint proposalId);\n\n    /// @notice restrict function access to allowed voters\n    modifier onlyVoters() {\n        require(voters[msg.sender].isRegistered, \"You're not a voter\");\n        _;\n    }\n    \n    /// @notice get a single voter details\n    /// @param _addr the voter address\n    /// @return Voter: the voter structure \n    function getVoter(address _addr) external onlyVoters view returns (Voter memory) {\n        return voters[_addr];\n    }\n\n    /// @notice get a single proposal details\n    /// @param _id the proposal id (uint)\n    /// @return Proposal: the proposal structure \n    function getOneProposal(uint _id) external onlyVoters view returns (Proposal memory) {\n        return proposalsArray[_id];\n    }\n\n    /// @notice add an address to the allowed voters list \n    /// @param _addr the voter address\n    /// @dev restricted to the contract's owner\n    /// @dev emits an event VoterRegistered\n    function addVoter(address _addr) external onlyOwner {\n        require(workflowStatus == WorkflowStatus.RegisteringVoters, 'Voters registration is not open yet');\n        require(nbrVoters < nbrVotersMax, 'Max voters number has been reached');\n        require(voters[_addr].isRegistered != true, 'Already registered');    \n        voters[_addr].isRegistered = true;\n        nbrVoters++;\n        emit VoterRegistered(_addr);\n    }\n \n    /// @notice register a proposal, restricted to allowed voters\n    /// @param _desc the proposal description\n    /// @dev emits an event ProposalRegistered\n    function addProposal(string memory _desc) external onlyVoters {\n        require(workflowStatus == WorkflowStatus.ProposalsRegistrationStarted, 'Proposals are not allowed yet');\n        require(!voters[msg.sender].hasSubmitted, 'Proposal already submitted');\n        require(keccak256(abi.encode(_desc)) != keccak256(abi.encode(\"\")), 'Vous ne pouvez pas ne rien proposer'); // facultatif\n        Proposal memory proposal;\n        proposal.description = _desc;\n        proposalsArray.push(proposal);\n        voters[msg.sender].hasSubmitted = true;\n        emit ProposalRegistered(proposalsArray.length-1);\n    }\n\n    /// @notice register a user vote, restricted to allowed voters\n    /// @param _id the proposal id (uint)\n    /// @dev emits an event Voted\n    function setVote(uint _id) external onlyVoters {\n        require(workflowStatus == WorkflowStatus.VotingSessionStarted, 'Voting session havent started yet');\n        require(voters[msg.sender].hasVoted != true, 'You have already voted');\n        require(_id <= proposalsArray.length, 'Proposal not found');\n        voters[msg.sender].votedProposalId = _id;\n        voters[msg.sender].hasVoted = true;\n        proposalsArray[_id].voteCount++;\n        emit Voted(msg.sender, _id);\n    }\n\n    /// @notice update worflow status, restricted to contract owner\n    /// @dev emits an event WorkflowStatusChange\n    function startProposalsRegistering() external onlyOwner {\n        require(workflowStatus == WorkflowStatus.RegisteringVoters, 'Registering proposals cant be started now');\n        workflowStatus = WorkflowStatus.ProposalsRegistrationStarted;\n        emit WorkflowStatusChange(WorkflowStatus.RegisteringVoters, WorkflowStatus.ProposalsRegistrationStarted);\n    }\n\n    /// @notice update worflow status, restricted to contract owner\n    /// @dev emits an event WorkflowStatusChange\n    function endProposalsRegistering() external onlyOwner {\n        require(workflowStatus == WorkflowStatus.ProposalsRegistrationStarted, 'Registering proposals havent started yet');\n        workflowStatus = WorkflowStatus.ProposalsRegistrationEnded;\n        emit WorkflowStatusChange(WorkflowStatus.ProposalsRegistrationStarted, WorkflowStatus.ProposalsRegistrationEnded);\n    }\n\n    /// @notice update worflow status, restricted to contract owner\n    /// @dev emits an event WorkflowStatusChange\n    function startVotingSession() external onlyOwner {\n        require(workflowStatus == WorkflowStatus.ProposalsRegistrationEnded, 'Registering proposals phase is not finished');\n        workflowStatus = WorkflowStatus.VotingSessionStarted;\n        emit WorkflowStatusChange(WorkflowStatus.ProposalsRegistrationEnded, WorkflowStatus.VotingSessionStarted);\n    }\n\n    /// @notice update worflow status, restricted to contract owner\n    /// @dev emits an event WorkflowStatusChange\n    function endVotingSession() external onlyOwner {\n        require(workflowStatus == WorkflowStatus.VotingSessionStarted, 'Voting session havent started yet');\n        workflowStatus = WorkflowStatus.VotingSessionEnded;\n        emit WorkflowStatusChange(WorkflowStatus.VotingSessionStarted, WorkflowStatus.VotingSessionEnded);\n    }\n\n    /// @notice update worflow status, then define winning proposal, restricted to contract owner\n    /// @dev emits an event WorkflowStatusChange\n    function tallyVotes() external onlyOwner {\n        require(workflowStatus == WorkflowStatus.VotingSessionEnded, \"Current status is not voting session ended\");\n        uint _winningProposalId;\n        for (uint256 p = 0; p < proposalsArray.length; p++) {\n            if (proposalsArray[p].voteCount > proposalsArray[_winningProposalId].voteCount) {\n                _winningProposalId = p;\n            }\n        }\n        winningProposalID = _winningProposalId;\n        workflowStatus = WorkflowStatus.VotesTallied;\n        emit WorkflowStatusChange(WorkflowStatus.VotingSessionEnded, WorkflowStatus.VotesTallied);\n    }\n}",
  "sourcePath": "/home/pierre/Projets/Alyra/Projet_3/contracts/Voting.sol",
  "compiler": {
    "name": "solc",
    "version": "0.8.13+commit.abaa5c0e.Emscripten.clang"
  },
  "schemaVersion": "3.4.6",
  "updatedAt": "2022-04-24T14:27:03.586Z",
  "networkType": "ethereum",
  "devdoc": {
    "author": "Cyril Castagnet & Pierre-Frdric Murillo",
    "details": "Use the nbrVotersMax variable to set the number of allowed voters",
    "kind": "dev",
    "methods": {
      "addProposal(string)": {
        "details": "emits an event ProposalRegistered",
        "params": {
          "_desc": "the proposal description"
        }
      },
      "addVoter(address)": {
        "details": "restricted to the contract's owneremits an event VoterRegistered",
        "params": {
          "_addr": "the voter address"
        }
      },
      "endProposalsRegistering()": {
        "details": "emits an event WorkflowStatusChange"
      },
      "endVotingSession()": {
        "details": "emits an event WorkflowStatusChange"
      },
      "getOneProposal(uint256)": {
        "params": {
          "_id": "the proposal id (uint)"
        },
        "returns": {
          "_0": "Proposal: the proposal structure "
        }
      },
      "getVoter(address)": {
        "params": {
          "_addr": "the voter address"
        },
        "returns": {
          "_0": "Voter: the voter structure "
        }
      },
      "owner()": {
        "details": "Returns the address of the current owner."
      },
      "renounceOwnership()": {
        "details": "Leaves the contract without owner. It will not be possible to call `onlyOwner` functions anymore. Can only be called by the current owner. NOTE: Renouncing ownership will leave the contract without an owner, thereby removing any functionality that is only available to the owner."
      },
      "setVote(uint256)": {
        "details": "emits an event Voted",
        "params": {
          "_id": "the proposal id (uint)"
        }
      },
      "startProposalsRegistering()": {
        "details": "emits an event WorkflowStatusChange"
      },
      "startVotingSession()": {
        "details": "emits an event WorkflowStatusChange"
      },
      "tallyVotes()": {
        "details": "emits an event WorkflowStatusChange"
      },
      "transferOwnership(address)": {
        "details": "Transfers ownership of the contract to a new account (`newOwner`). Can only be called by the current owner."
      }
    },
    "title": "A voting system",
    "version": 1
  },
  "userdoc": {
    "kind": "user",
    "methods": {
      "addProposal(string)": {
        "notice": "register a proposal, restricted to allowed voters"
      },
      "addVoter(address)": {
        "notice": "add an address to the allowed voters list "
      },
      "endProposalsRegistering()": {
        "notice": "update worflow status, restricted to contract owner"
      },
      "endVotingSession()": {
        "notice": "update worflow status, restricted to contract owner"
      },
      "getOneProposal(uint256)": {
        "notice": "get a single proposal details"
      },
      "getVoter(address)": {
        "notice": "get a single voter details"
      },
      "setVote(uint256)": {
        "notice": "register a user vote, restricted to allowed voters"
      },
      "startProposalsRegistering()": {
        "notice": "update worflow status, restricted to contract owner"
      },
      "startVotingSession()": {
        "notice": "update worflow status, restricted to contract owner"
      },
      "tallyVotes()": {
        "notice": "update worflow status, then define winning proposal, restricted to contract owner"
      }
    },
    "notice": "Each allowed voter can set a proposal, then vote for a proposal",
    "version": 1
  }
}